{
  "transactions": [
    {
      "hash": "0xdaa9cab6b2fe10b6c1b15655d8ea752a7e4e97a50f6d64f42efdd856f3a64905",
      "transactionType": "CALL",
      "contractName": null,
      "contractAddress": "0x000000000004444c5dc75cb358380d2e3de08a90",
      "function": "initialize((address,address,uint24,int24,address),uint160)",
      "arguments": [
        "(0x57C3571f10767E49C9d7b60feb6c67804783B7aE, 0xC02aaA39b223FE8D0A0e5C4F27eAD9083C756Cc2, 8388608, 60, 0xe5F619EC8Af334Fb54CcEcf6802378cd2100E0c0)",
        "2185009609471183662158284082"
      ],
      "transaction": {
        "from": "0xabca0e0792c4ca2c25a8055e974bf31224a399d5",
        "to": "0x000000000004444c5dc75cb358380d2e3de08a90",
        "gas": "0x142b8",
        "value": "0x0",
        "input": "0x6276cbbe00000000000000000000000057c3571f10767e49c9d7b60feb6c67804783b7ae000000000000000000000000c02aaa39b223fe8d0a0e5c4f27ead9083c756cc20000000000000000000000000000000000000000000000000000000000800000000000000000000000000000000000000000000000000000000000000000003c000000000000000000000000e5f619ec8af334fb54ccecf6802378cd2100e0c00000000000000000000000000000000000000000070f65c84646d094886d8532",
        "nonce": "0x265",
        "chainId": "0x1"
      },
      "additionalContracts": [],
      "isFixedGasLimit": false
    }
  ],
  "receipts": [
    {
      "status": "0x1",
      "cumulativeGasUsed": "0x8f99c0",
      "logs": [
        {
          "address": "0x000000000004444c5dc75cb358380d2e3de08a90",
          "topics": [
            "0xdd466e674ea557f56295e2d0218a125ea4b4f0f6f3307b95f85e6110838d6438",
            "0xaa4aebc5147167353ad9ac16d1fcb87e12aef62d9bd870d4bf5762cce166c920",
            "0x00000000000000000000000057c3571f10767e49c9d7b60feb6c67804783b7ae",
            "0x000000000000000000000000c02aaa39b223fe8d0a0e5c4f27ead9083c756cc2"
          ],
          "data": "0x0000000000000000000000000000000000000000000000000000000000800000000000000000000000000000000000000000000000000000000000000000003c000000000000000000000000e5f619ec8af334fb54ccecf6802378cd2100e0c00000000000000000000000000000000000000000070f65c84646d094886d8532fffffffffffffffffffffffffffffffffffffffffffffffffffffffffffee776",
          "blockHash": "0xfff6077b3af9fcae74a05fa3497e04320d08915dbd2bcb8a893f14aafccf25a7",
          "blockNumber": "0x1848b4c",
          "blockTimestamp": "0x6a49ceeb",
          "transactionHash": "0xdaa9cab6b2fe10b6c1b15655d8ea752a7e4e97a50f6d64f42efdd856f3a64905",
          "transactionIndex": "0x48",
          "logIndex": "0xdb",
          "removed": false
        }
      ],
      "logsBloom": "0x00000000000000000000000000000000000000000000000000000080000000000000000020000000000000000000000000000000000000000000000000000000000000000000000000000000000000800000000000000000000000000000000000000000000000000000000000000000000000000000000000000000000000000040004000000008000000400000000000000001000000200000000000200400000000000000000000000000100000000000000000000000000000000000000000000800000000000000000000080000000000000000000000000000000000000000020000000000000000000000000000000000000000000000000000000000",
      "type": "0x2",
      "transactionHash": "0xdaa9cab6b2fe10b6c1b15655d8ea752a7e4e97a50f6d64f42efdd856f3a64905",
      "transactionIndex": "0x48",
      "blockHash": "0xfff6077b3af9fcae74a05fa3497e04320d08915dbd2bcb8a893f14aafccf25a7",
      "blockNumber": "0x1848b4c",
      "gasUsed": "0xdcaa",
      "effectiveGasPrice": "0x89a9813",
      "from": "0xabca0e0792c4ca2c25a8055e974bf31224a399d5",
      "to": "0x000000000004444c5dc75cb358380d2e3de08a90",
      "contractAddress": null
    }
  ],
  "libraries": [],
  "pending": [],
  "returns": {
    "key": {
      "internal_type": "struct PoolKey",
      "value": "(0x57C3571f10767E49C9d7b60feb6c67804783B7aE, 0xC02aaA39b223FE8D0A0e5C4F27eAD9083C756Cc2, 8388608, 60, 0xe5F619EC8Af334Fb54CcEcf6802378cd2100E0c0)"
    }
  },
  "timestamp": 1783221998451,
  "chain": 1,
  "commit": "491e64b"
}