{
  "transactions": [
    {
      "hash": "0x820ba6e5cede312f067b8588481a62a8d940c1af3838261ac10a0813814d94cb",
      "transactionType": "CALL",
      "contractName": null,
      "contractAddress": "0x000000000004444c5dc75cb358380d2e3de08a90",
      "function": "initialize((address,address,uint24,int24,address),uint160)",
      "arguments": [
        "(0x57C3571f10767E49C9d7b60feb6c67804783B7aE, 0xA0b86991c6218b36c1d19D4a2e9Eb0cE3606eB48, 8388608, 1, 0x09ff2EB94D873C6B4beFdE087362044a2B02e0c0)",
        "91769425572216842075680"
      ],
      "transaction": {
        "from": "0xdeed2376ad1d9cc54e0cca449b1d7a96939120f9",
        "to": "0x000000000004444c5dc75cb358380d2e3de08a90",
        "gas": "0x14317",
        "value": "0x0",
        "input": "0x6276cbbe00000000000000000000000057c3571f10767e49c9d7b60feb6c67804783b7ae000000000000000000000000a0b86991c6218b36c1d19d4a2e9eb0ce3606eb480000000000000000000000000000000000000000000000000000000000800000000000000000000000000000000000000000000000000000000000000000000100000000000000000000000009ff2eb94d873c6b4befde087362044a2b02e0c000000000000000000000000000000000000000000000136ed49d86ad2169be20",
        "nonce": "0x2e",
        "chainId": "0x1"
      },
      "additionalContracts": [],
      "isFixedGasLimit": false
    }
  ],
  "receipts": [
    {
      "status": "0x1",
      "cumulativeGasUsed": "0x96fb73",
      "logs": [
        {
          "address": "0x000000000004444c5dc75cb358380d2e3de08a90",
          "topics": [
            "0xdd466e674ea557f56295e2d0218a125ea4b4f0f6f3307b95f85e6110838d6438",
            "0x3413fca9ffa9fa33b15562b6a81e74368f9ec59fb80ea920fe6c6e9651685a5c",
            "0x00000000000000000000000057c3571f10767e49c9d7b60feb6c67804783b7ae",
            "0x000000000000000000000000a0b86991c6218b36c1d19d4a2e9eb0ce3606eb48"
          ],
          "data": "0x0000000000000000000000000000000000000000000000000000000000800000000000000000000000000000000000000000000000000000000000000000000100000000000000000000000009ff2eb94d873c6b4befde087362044a2b02e0c000000000000000000000000000000000000000000000136ed49d86ad2169be20fffffffffffffffffffffffffffffffffffffffffffffffffffffffffffbd417",
          "blockHash": "0xff40dbd0927778f70ccf5bb73b285d9f012ec7ce301f40b6d21f2bd842babab1",
          "blockNumber": "0x184a1da",
          "blockTimestamp": "0x6a4adefb",
          "transactionHash": "0x820ba6e5cede312f067b8588481a62a8d940c1af3838261ac10a0813814d94cb",
          "transactionIndex": "0x76",
          "logIndex": "0xcc",
          "removed": false
        }
      ],
      "logsBloom": "0x00000000000000000000000000000000000000000000000000000080000800000000000020000000000002000000000000000000000000000000000000000000000000000000000000400000000000000000000000000000000000000000000000000000000000000000000000000000000000000000000000000000000000000000000000000008000000000000002200000001000000200000000000200000000000000000000000000000100000000000000000000000000000000000000000000800000000000000000000000000000000000000000000000000000000000000020000000000000000000000000004000000000000000000000000000000",
      "type": "0x2",
      "transactionHash": "0x820ba6e5cede312f067b8588481a62a8d940c1af3838261ac10a0813814d94cb",
      "transactionIndex": "0x76",
      "blockHash": "0xff40dbd0927778f70ccf5bb73b285d9f012ec7ce301f40b6d21f2bd842babab1",
      "blockNumber": "0x184a1da",
      "gasUsed": "0xdceb",
      "effectiveGasPrice": "0xaf862c2",
      "from": "0xdeed2376ad1d9cc54e0cca449b1d7a96939120f9",
      "to": "0x000000000004444c5dc75cb358380d2e3de08a90",
      "contractAddress": null
    }
  ],
  "libraries": [],
  "pending": [],
  "returns": {
    "key": {
      "internal_type": "struct PoolKey",
      "value": "(0x57C3571f10767E49C9d7b60feb6c67804783B7aE, 0xA0b86991c6218b36c1d19D4a2e9Eb0cE3606eB48, 8388608, 1, 0x09ff2EB94D873C6B4beFdE087362044a2B02e0c0)"
    }
  },
  "timestamp": 1783291646733,
  "chain": 1,
  "commit": "b659c26"
}